{
  "_format": "hh-sol-artifact-1",
  "contractName": "NFT",
  "sourceName": "contracts/NFT.sol",
  "abi": [
    {
      "inputs": [],
      "stateMutability": "nonpayable",
      "type": "constructor"
    },
    {
      "anonymous": false,
      "inputs": [
        {
          "indexed": true,
          "internalType": "address",
          "name": "owner",
          "type": "address"
        },
        {
          "indexed": true,
          "internalType": "address",
          "name": "approved",
          "type": "address"
        },
        {
          "indexed": true,
          "internalType": "uint256",
          "name": "tokenId",
          "type": "uint256"
        }
      ],
      "name": "Approval",
      "type": "event"
    },
    {
      "anonymous": false,
      "inputs": [
        {
          "indexed": true,
          "internalType": "address",
          "name": "owner",
          "type": "address"
        },
        {
          "indexed": true,
          "internalType": "address",
          "name": "operator",
          "type": "address"
        },
        {
          "indexed": false,
          "internalType": "bool",
          "name": "approved",
          "type": "bool"
        }
      ],
      "name": "ApprovalForAll",
      "type": "event"
    },
    {
      "anonymous": false,
      "inputs": [
        {
          "indexed": true,
          "internalType": "address",
          "name": "previousOwner",
          "type": "address"
        },
        {
          "indexed": true,
          "internalType": "address",
          "name": "newOwner",
          "type": "address"
        }
      ],
      "name": "OwnershipTransferred",
      "type": "event"
    },
    {
      "anonymous": false,
      "inputs": [
        {
          "indexed": true,
          "internalType": "address",
          "name": "from",
          "type": "address"
        },
        {
          "indexed": true,
          "internalType": "address",
          "name": "to",
          "type": "address"
        },
        {
          "indexed": true,
          "internalType": "uint256",
          "name": "tokenId",
          "type": "uint256"
        }
      ],
      "name": "Transfer",
      "type": "event"
    },
    {
      "inputs": [
        {
          "internalType": "address",
          "name": "to",
          "type": "address"
        },
        {
          "internalType": "uint256",
          "name": "tokenId",
          "type": "uint256"
        }
      ],
      "name": "approve",
      "outputs": [],
      "stateMutability": "nonpayable",
      "type": "function"
    },
    {
      "inputs": [
        {
          "internalType": "address",
          "name": "owner",
          "type": "address"
        }
      ],
      "name": "balanceOf",
      "outputs": [
        {
          "internalType": "uint256",
          "name": "",
          "type": "uint256"
        }
      ],
      "stateMutability": "view",
      "type": "function"
    },
    {
      "inputs": [],
      "name": "baseTokenURI",
      "outputs": [
        {
          "internalType": "string",
          "name": "",
          "type": "string"
        }
      ],
      "stateMutability": "view",
      "type": "function"
    },
    {
      "inputs": [
        {
          "internalType": "uint256",
          "name": "tokenId",
          "type": "uint256"
        }
      ],
      "name": "getApproved",
      "outputs": [
        {
          "internalType": "address",
          "name": "",
          "type": "address"
        }
      ],
      "stateMutability": "view",
      "type": "function"
    },
    {
      "inputs": [],
      "name": "getBaseTokenURI",
      "outputs": [
        {
          "internalType": "string",
          "name": "",
          "type": "string"
        }
      ],
      "stateMutability": "view",
      "type": "function"
    },
    {
      "inputs": [
        {
          "internalType": "address",
          "name": "owner",
          "type": "address"
        },
        {
          "internalType": "address",
          "name": "operator",
          "type": "address"
        }
      ],
      "name": "isApprovedForAll",
      "outputs": [
        {
          "internalType": "bool",
          "name": "",
          "type": "bool"
        }
      ],
      "stateMutability": "view",
      "type": "function"
    },
    {
      "inputs": [
        {
          "internalType": "address",
          "name": "receipent",
          "type": "address"
        }
      ],
      "name": "minTo",
      "outputs": [
        {
          "internalType": "uint256",
          "name": "",
          "type": "uint256"
        }
      ],
      "stateMutability": "payable",
      "type": "function"
    },
    {
      "inputs": [],
      "name": "name",
      "outputs": [
        {
          "internalType": "string",
          "name": "",
          "type": "string"
        }
      ],
      "stateMutability": "view",
      "type": "function"
    },
    {
      "inputs": [],
      "name": "owner",
      "outputs": [
        {
          "internalType": "address",
          "name": "",
          "type": "address"
        }
      ],
      "stateMutability": "view",
      "type": "function"
    },
    {
      "inputs": [
        {
          "internalType": "uint256",
          "name": "tokenId",
          "type": "uint256"
        }
      ],
      "name": "ownerOf",
      "outputs": [
        {
          "internalType": "address",
          "name": "",
          "type": "address"
        }
      ],
      "stateMutability": "view",
      "type": "function"
    },
    {
      "inputs": [
        {
          "internalType": "address",
          "name": "dest",
          "type": "address"
        }
      ],
      "name": "payments",
      "outputs": [
        {
          "internalType": "uint256",
          "name": "",
          "type": "uint256"
        }
      ],
      "stateMutability": "view",
      "type": "function"
    },
    {
      "inputs": [],
      "name": "renounceOwnership",
      "outputs": [],
      "stateMutability": "nonpayable",
      "type": "function"
    },
    {
      "inputs": [
        {
          "internalType": "address",
          "name": "from",
          "type": "address"
        },
        {
          "internalType": "address",
          "name": "to",
          "type": "address"
        },
        {
          "internalType": "uint256",
          "name": "tokenId",
          "type": "uint256"
        }
      ],
      "name": "safeTransferFrom",
      "outputs": [],
      "stateMutability": "nonpayable",
      "type": "function"
    },
    {
      "inputs": [
        {
          "internalType": "address",
          "name": "from",
          "type": "address"
        },
        {
          "internalType": "address",
          "name": "to",
          "type": "address"
        },
        {
          "internalType": "uint256",
          "name": "tokenId",
          "type": "uint256"
        },
        {
          "internalType": "bytes",
          "name": "_data",
          "type": "bytes"
        }
      ],
      "name": "safeTransferFrom",
      "outputs": [],
      "stateMutability": "nonpayable",
      "type": "function"
    },
    {
      "inputs": [
        {
          "internalType": "address",
          "name": "operator",
          "type": "address"
        },
        {
          "internalType": "bool",
          "name": "approved",
          "type": "bool"
        }
      ],
      "name": "setApprovalForAll",
      "outputs": [],
      "stateMutability": "nonpayable",
      "type": "function"
    },
    {
      "inputs": [
        {
          "internalType": "string",
          "name": "_baseTokenURI",
          "type": "string"
        }
      ],
      "name": "setBaseUrl",
      "outputs": [],
      "stateMutability": "nonpayable",
      "type": "function"
    },
    {
      "inputs": [
        {
          "internalType": "bytes4",
          "name": "interfaceId",
          "type": "bytes4"
        }
      ],
      "name": "supportsInterface",
      "outputs": [
        {
          "internalType": "bool",
          "name": "",
          "type": "bool"
        }
      ],
      "stateMutability": "view",
      "type": "function"
    },
    {
      "inputs": [],
      "name": "symbol",
      "outputs": [
        {
          "internalType": "string",
          "name": "",
          "type": "string"
        }
      ],
      "stateMutability": "view",
      "type": "function"
    },
    {
      "inputs": [
        {
          "internalType": "uint256",
          "name": "tokenId",
          "type": "uint256"
        }
      ],
      "name": "tokenURI",
      "outputs": [
        {
          "internalType": "string",
          "name": "",
          "type": "string"
        }
      ],
      "stateMutability": "view",
      "type": "function"
    },
    {
      "inputs": [
        {
          "internalType": "address",
          "name": "from",
          "type": "address"
        },
        {
          "internalType": "address",
          "name": "to",
          "type": "address"
        },
        {
          "internalType": "uint256",
          "name": "tokenId",
          "type": "uint256"
        }
      ],
      "name": "transferFrom",
      "outputs": [],
      "stateMutability": "nonpayable",
      "type": "function"
    },
    {
      "inputs": [
        {
          "internalType": "address",
          "name": "newOwner",
          "type": "address"
        }
      ],
      "name": "transferOwnership",
      "outputs": [],
      "stateMutability": "nonpayable",
      "type": "function"
    },
    {
      "inputs": [
        {
          "internalType": "address payable",
          "name": "payee",
          "type": "address"
        }
      ],
      "name": "withdrawPayments",
      "outputs": [],
      "stateMutability": "nonpayable",
      "type": "function"
    }
  ],
  "bytecode": "0x60a06040526103e8600955662386f26fc10000600a553480156200002257600080fd5b506040518060400160405280600781526020017f4e465454657374000000000000000000000000000000000000000000000000008152506040518060400160405280600481526020017f4e465454000000000000000000000000000000000000000000000000000000008152508160009080519060200190620000a792919062000241565b508060019080519060200190620000c092919062000241565b505050604051620000d190620002d2565b604051809103906000f080158015620000ee573d6000803e3d6000fd5b5073ffffffffffffffffffffffffffffffffffffffff1660808173ffffffffffffffffffffffffffffffffffffffff1660601b8152505062000145620001396200017360201b60201c565b6200017b60201b60201c565b60405180602001604052806000815250600890805190602001906200016c92919062000241565b5062000364565b600033905090565b6000600660009054906101000a900473ffffffffffffffffffffffffffffffffffffffff16905081600660006101000a81548173ffffffffffffffffffffffffffffffffffffffff021916908373ffffffffffffffffffffffffffffffffffffffff1602179055508173ffffffffffffffffffffffffffffffffffffffff168173ffffffffffffffffffffffffffffffffffffffff167f8be0079c531659141344cd1fd0a4f28419497f9722a3daafe3b4186f6b6457e060405160405180910390a35050565b8280546200024f90620002ff565b90600052602060002090601f016020900481019282620002735760008555620002bf565b82601f106200028e57805160ff1916838001178555620002bf565b82800160010185558215620002bf579182015b82811115620002be578251825591602001919060010190620002a1565b5b509050620002ce9190620002e0565b5090565b610d09806200379f83390190565b5b80821115620002fb576000816000905550600101620002e1565b5090565b600060028204905060018216806200031857607f821691505b602082108114156200032f576200032e62000335565b5b50919050565b7f4e487b7100000000000000000000000000000000000000000000000000000000600052602260045260246000fd5b60805160601c6134156200038a600039600081816108be0152610f3801526134156000f3fe6080604052600436106101355760003560e01c80638da5cb5b116100ab578063c7c3268b1161006f578063c7c3268b14610417578063c87b56dd14610440578063d547cfb71461047d578063e2982c21146104a8578063e985e9c5146104e5578063f2fde38b1461052257610135565b80638da5cb5b1461034457806395d89b411461036f578063a22cb4651461039a578063b88d4fde146103c3578063bdc32be0146103ec57610135565b806331b3eb94116100fd57806331b3eb941461023157806342842e0e1461025a57806354d673a7146102835780636352211e146102b357806370a08231146102f0578063715018a61461032d57610135565b806301ffc9a71461013a57806306fdde0314610177578063081812fc146101a2578063095ea7b3146101df57806323b872dd14610208575b600080fd5b34801561014657600080fd5b50610161600480360381019061015c919061232d565b61054b565b60405161016e919061280d565b60405180910390f35b34801561018357600080fd5b5061018c61062d565b6040516101999190612828565b60405180910390f35b3480156101ae57600080fd5b506101c960048036038101906101c491906123c0565b6106bf565b6040516101d6919061278b565b60405180910390f35b3480156101eb57600080fd5b50610206600480360381019061020191906122f1565b610744565b005b34801561021457600080fd5b5061022f600480360381019061022a91906121eb565b61085c565b005b34801561023d57600080fd5b5061025860048036038101906102539190612186565b6108bc565b005b34801561026657600080fd5b50610281600480360381019061027c91906121eb565b61094a565b005b61029d6004803603810190610298919061215d565b61096a565b6040516102aa9190612a8a565b60405180910390f35b3480156102bf57600080fd5b506102da60048036038101906102d591906123c0565b610a2d565b6040516102e7919061278b565b60405180910390f35b3480156102fc57600080fd5b506103176004803603810190610312919061215d565b610adf565b6040516103249190612a8a565b60405180910390f35b34801561033957600080fd5b50610342610b97565b005b34801561035057600080fd5b50610359610c1f565b604051610366919061278b565b60405180910390f35b34801561037b57600080fd5b50610384610c49565b6040516103919190612828565b60405180910390f35b3480156103a657600080fd5b506103c160048036038101906103bc91906122b5565b610cdb565b005b3480156103cf57600080fd5b506103ea60048036038101906103e5919061223a565b610cf1565b005b3480156103f857600080fd5b50610401610d53565b60405161040e9190612828565b60405180910390f35b34801561042357600080fd5b5061043e6004803603810190610439919061237f565b610de5565b005b34801561044c57600080fd5b50610467600480360381019061046291906123c0565b610dff565b6040516104749190612828565b60405180910390f35b34801561048957600080fd5b50610492610ea6565b60405161049f9190612828565b60405180910390f35b3480156104b457600080fd5b506104cf60048036038101906104ca919061215d565b610f34565b6040516104dc9190612a8a565b60405180910390f35b3480156104f157600080fd5b5061050c600480360381019061050791906121af565b610fe6565b604051610519919061280d565b60405180910390f35b34801561052e57600080fd5b506105496004803603810190610544919061215d565b61107a565b005b60007f80ac58cd000000000000000000000000000000000000000000000000000000007bffffffffffffffffffffffffffffffffffffffffffffffffffffffff1916827bffffffffffffffffffffffffffffffffffffffffffffffffffffffff1916148061061657507f5b5e139f000000000000000000000000000000000000000000000000000000007bffffffffffffffffffffffffffffffffffffffffffffffffffffffff1916827bffffffffffffffffffffffffffffffffffffffffffffffffffffffff1916145b80610626575061062582611172565b5b9050919050565b60606000805461063c90612cf2565b80601f016020809104026020016040519081016040528092919081815260200182805461066890612cf2565b80156106b55780601f1061068a576101008083540402835291602001916106b5565b820191906000526020600020905b81548152906001019060200180831161069857829003601f168201915b5050505050905090565b60006106ca826111dc565b610709576040517f08c379a0000000000000000000000000000000000000000000000000000000008152600401610700906129ea565b60405180910390fd5b6004600083815260200190815260200160002060009054906101000a900473ffffffffffffffffffffffffffffffffffffffff169050919050565b600061074f82610a2d565b90508073ffffffffffffffffffffffffffffffffffffffff168373ffffffffffffffffffffffffffffffffffffffff1614156107c0576040517f08c379a00000000000000000000000000000000000000000000000000000000081526004016107b790612a4a565b60405180910390fd5b8073ffffffffffffffffffffffffffffffffffffffff166107df611248565b73ffffffffffffffffffffffffffffffffffffffff16148061080e575061080d81610808611248565b610fe6565b5b61084d576040517f08c379a00000000000000000000000000000000000000000000000000000000081526004016108449061294a565b60405180910390fd5b6108578383611250565b505050565b61086d610867611248565b82611309565b6108ac576040517f08c379a00000000000000000000000000000000000000000000000000000000081526004016108a390612a6a565b60405180910390fd5b6108b78383836113e7565b505050565b7f000000000000000000000000000000000000000000000000000000000000000073ffffffffffffffffffffffffffffffffffffffff166351cff8d9826040518263ffffffff1660e01b815260040161091591906127a6565b600060405180830381600087803b15801561092f57600080fd5b505af1158015610943573d6000803e3d6000fd5b5050505050565b61096583838360405180602001604052806000815250610cf1565b505050565b600080610977600761164e565b905060095481106109bd576040517f08c379a00000000000000000000000000000000000000000000000000000000081526004016109b49061284a565b60405180910390fd5b600a543414610a01576040517f08c379a00000000000000000000000000000000000000000000000000000000081526004016109f8906129aa565b60405180910390fd5b610a0b600761165c565b6000610a17600761164e565b9050610a238482611672565b8092505050919050565b6000806002600084815260200190815260200160002060009054906101000a900473ffffffffffffffffffffffffffffffffffffffff169050600073ffffffffffffffffffffffffffffffffffffffff168173ffffffffffffffffffffffffffffffffffffffff161415610ad6576040517f08c379a0000000000000000000000000000000000000000000000000000000008152600401610acd9061298a565b60405180910390fd5b80915050919050565b60008073ffffffffffffffffffffffffffffffffffffffff168273ffffffffffffffffffffffffffffffffffffffff161415610b50576040517f08c379a0000000000000000000000000000000000000000000000000000000008152600401610b479061296a565b60405180910390fd5b600360008373ffffffffffffffffffffffffffffffffffffffff1673ffffffffffffffffffffffffffffffffffffffff168152602001908152602001600020549050919050565b610b9f611248565b73ffffffffffffffffffffffffffffffffffffffff16610bbd610c1f565b73ffffffffffffffffffffffffffffffffffffffff1614610c13576040517f08c379a0000000000000000000000000000000000000000000000000000000008152600401610c0a90612a0a565b60405180910390fd5b610c1d6000611690565b565b6000600660009054906101000a900473ffffffffffffffffffffffffffffffffffffffff16905090565b606060018054610c5890612cf2565b80601f0160208091040260200160405190810160405280929190818152602001828054610c8490612cf2565b8015610cd15780601f10610ca657610100808354040283529160200191610cd1565b820191906000526020600020905b815481529060010190602001808311610cb457829003601f168201915b5050505050905090565b610ced610ce6611248565b8383611756565b5050565b610d02610cfc611248565b83611309565b610d41576040517f08c379a0000000000000000000000000000000000000000000000000000000008152600401610d3890612a6a565b60405180910390fd5b610d4d848484846118c3565b50505050565b606060088054610d6290612cf2565b80601f0160208091040260200160405190810160405280929190818152602001828054610d8e90612cf2565b8015610ddb5780601f10610db057610100808354040283529160200191610ddb565b820191906000526020600020905b815481529060010190602001808311610dbe57829003601f168201915b5050505050905090565b8060089080519060200190610dfb929190611f57565b5050565b6060610e0a826111dc565b610e49576040517f08c379a0000000000000000000000000000000000000000000000000000000008152600401610e4090612a2a565b60405180910390fd5b6000610e5361191f565b90506000815111610e735760405180602001604052806000815250610e9e565b80610e7d846119b1565b604051602001610e8e929190612767565b6040516020818303038152906040525b915050919050565b60088054610eb390612cf2565b80601f0160208091040260200160405190810160405280929190818152602001828054610edf90612cf2565b8015610f2c5780601f10610f0157610100808354040283529160200191610f2c565b820191906000526020600020905b815481529060010190602001808311610f0f57829003601f168201915b505050505081565b60007f000000000000000000000000000000000000000000000000000000000000000073ffffffffffffffffffffffffffffffffffffffff1663e3a9db1a836040518263ffffffff1660e01b8152600401610f8f919061278b565b60206040518083038186803b158015610fa757600080fd5b505afa158015610fbb573d6000803e3d6000fd5b505050506040513d601f19601f82011682018060405250810190610fdf91906123e9565b9050919050565b6000600560008473ffffffffffffffffffffffffffffffffffffffff1673ffffffffffffffffffffffffffffffffffffffff16815260200190815260200160002060008373ffffffffffffffffffffffffffffffffffffffff1673ffffffffffffffffffffffffffffffffffffffff16815260200190815260200160002060009054906101000a900460ff16905092915050565b611082611248565b73ffffffffffffffffffffffffffffffffffffffff166110a0610c1f565b73ffffffffffffffffffffffffffffffffffffffff16146110f6576040517f08c379a00000000000000000000000000000000000000000000000000000000081526004016110ed90612a0a565b60405180910390fd5b600073ffffffffffffffffffffffffffffffffffffffff168173ffffffffffffffffffffffffffffffffffffffff161415611166576040517f08c379a000000000000000000000000000000000000000000000000000000000815260040161115d9061288a565b60405180910390fd5b61116f81611690565b50565b60007f01ffc9a7000000000000000000000000000000000000000000000000000000007bffffffffffffffffffffffffffffffffffffffffffffffffffffffff1916827bffffffffffffffffffffffffffffffffffffffffffffffffffffffff1916149050919050565b60008073ffffffffffffffffffffffffffffffffffffffff166002600084815260200190815260200160002060009054906101000a900473ffffffffffffffffffffffffffffffffffffffff1673ffffffffffffffffffffffffffffffffffffffff1614159050919050565b600033905090565b816004600083815260200190815260200160002060006101000a81548173ffffffffffffffffffffffffffffffffffffffff021916908373ffffffffffffffffffffffffffffffffffffffff160217905550808273ffffffffffffffffffffffffffffffffffffffff166112c383610a2d565b73ffffffffffffffffffffffffffffffffffffffff167f8c5be1e5ebec7d5bd14f71427d1e84f3dd0314c0f7b2291e5b200ac8c7c3b92560405160405180910390a45050565b6000611314826111dc565b611353576040517f08c379a000000000000000000000000000000000000000000000000000000000815260040161134a9061292a565b60405180910390fd5b600061135e83610a2d565b90508073ffffffffffffffffffffffffffffffffffffffff168473ffffffffffffffffffffffffffffffffffffffff1614806113a0575061139f8185610fe6565b5b806113de57508373ffffffffffffffffffffffffffffffffffffffff166113c6846106bf565b73ffffffffffffffffffffffffffffffffffffffff16145b91505092915050565b8273ffffffffffffffffffffffffffffffffffffffff1661140782610a2d565b73ffffffffffffffffffffffffffffffffffffffff161461145d576040517f08c379a0000000000000000000000000000000000000000000000000000000008152600401611454906128aa565b60405180910390fd5b600073ffffffffffffffffffffffffffffffffffffffff168273ffffffffffffffffffffffffffffffffffffffff1614156114cd576040517f08c379a00000000000000000000000000000000000000000000000000000000081526004016114c4906128ea565b60405180910390fd5b6114d8838383611b5e565b6114e3600082611250565b6001600360008573ffffffffffffffffffffffffffffffffffffffff1673ffffffffffffffffffffffffffffffffffffffff16815260200190815260200160002060008282546115339190612bf6565b925050819055506001600360008473ffffffffffffffffffffffffffffffffffffffff1673ffffffffffffffffffffffffffffffffffffffff168152602001908152602001600020600082825461158a9190612b6f565b92505081905550816002600083815260200190815260200160002060006101000a81548173ffffffffffffffffffffffffffffffffffffffff021916908373ffffffffffffffffffffffffffffffffffffffff160217905550808273ffffffffffffffffffffffffffffffffffffffff168473ffffffffffffffffffffffffffffffffffffffff167fddf252ad1be2c89b69c2b068fc378daa952ba7f163c4a11628f55a4df523b3ef60405160405180910390a4611649838383611b63565b505050565b600081600001549050919050565b6001816000016000828254019250508190555050565b61168c828260405180602001604052806000815250611b68565b5050565b6000600660009054906101000a900473ffffffffffffffffffffffffffffffffffffffff16905081600660006101000a81548173ffffffffffffffffffffffffffffffffffffffff021916908373ffffffffffffffffffffffffffffffffffffffff1602179055508173ffffffffffffffffffffffffffffffffffffffff168173ffffffffffffffffffffffffffffffffffffffff167f8be0079c531659141344cd1fd0a4f28419497f9722a3daafe3b4186f6b6457e060405160405180910390a35050565b8173ffffffffffffffffffffffffffffffffffffffff168373ffffffffffffffffffffffffffffffffffffffff1614156117c5576040517f08c379a00000000000000000000000000000000000000000000000000000000081526004016117bc9061290a565b60405180910390fd5b80600560008573ffffffffffffffffffffffffffffffffffffffff1673ffffffffffffffffffffffffffffffffffffffff16815260200190815260200160002060008473ffffffffffffffffffffffffffffffffffffffff1673ffffffffffffffffffffffffffffffffffffffff16815260200190815260200160002060006101000a81548160ff0219169083151502179055508173ffffffffffffffffffffffffffffffffffffffff168373ffffffffffffffffffffffffffffffffffffffff167f17307eab39ab6107e8899845ad3d59bd9653f200f220920489ca2b5937696c31836040516118b6919061280d565b60405180910390a3505050565b6118ce8484846113e7565b6118da84848484611bc3565b611919576040517f08c379a00000000000000000000000000000000000000000000000000000000081526004016119109061286a565b60405180910390fd5b50505050565b60606008805461192e90612cf2565b80601f016020809104026020016040519081016040528092919081815260200182805461195a90612cf2565b80156119a75780601f1061197c576101008083540402835291602001916119a7565b820191906000526020600020905b81548152906001019060200180831161198a57829003601f168201915b5050505050905090565b606060008214156119f9576040518060400160405280600181526020017f30000000000000000000000000000000000000000000000000000000000000008152509050611b59565b600082905060005b60008214611a2b578080611a1490612d55565b915050600a82611a249190612bc5565b9150611a01565b60008167ffffffffffffffff811115611a6d577f4e487b7100000000000000000000000000000000000000000000000000000000600052604160045260246000fd5b6040519080825280601f01601f191660200182016040528015611a9f5781602001600182028036833780820191505090505b5090505b60008514611b5257600182611ab89190612bf6565b9150600a85611ac79190612d9e565b6030611ad39190612b6f565b60f81b818381518110611b0f577f4e487b7100000000000000000000000000000000000000000000000000000000600052603260045260246000fd5b60200101907effffffffffffffffffffffffffffffffffffffffffffffffffffffffffffff1916908160001a905350600a85611b4b9190612bc5565b9450611aa3565b8093505050505b919050565b505050565b505050565b611b728383611d5a565b611b7f6000848484611bc3565b611bbe576040517f08c379a0000000000000000000000000000000000000000000000000000000008152600401611bb59061286a565b60405180910390fd5b505050565b6000611be48473ffffffffffffffffffffffffffffffffffffffff16611f34565b15611d4d578373ffffffffffffffffffffffffffffffffffffffff1663150b7a02611c0d611248565b8786866040518563ffffffff1660e01b8152600401611c2f94939291906127c1565b602060405180830381600087803b158015611c4957600080fd5b505af1925050508015611c7a57506040513d601f19601f82011682018060405250810190611c779190612356565b60015b611cfd573d8060008114611caa576040519150601f19603f3d011682016040523d82523d6000602084013e611caf565b606091505b50600081511415611cf5576040517f08c379a0000000000000000000000000000000000000000000000000000000008152600401611cec9061286a565b60405180910390fd5b805181602001fd5b63150b7a0260e01b7bffffffffffffffffffffffffffffffffffffffffffffffffffffffff1916817bffffffffffffffffffffffffffffffffffffffffffffffffffffffff191614915050611d52565b600190505b949350505050565b600073ffffffffffffffffffffffffffffffffffffffff168273ffffffffffffffffffffffffffffffffffffffff161415611dca576040517f08c379a0000000000000000000000000000000000000000000000000000000008152600401611dc1906129ca565b60405180910390fd5b611dd3816111dc565b15611e13576040517f08c379a0000000000000000000000000000000000000000000000000000000008152600401611e0a906128ca565b60405180910390fd5b611e1f60008383611b5e565b6001600360008473ffffffffffffffffffffffffffffffffffffffff1673ffffffffffffffffffffffffffffffffffffffff1681526020019081526020016000206000828254611e6f9190612b6f565b92505081905550816002600083815260200190815260200160002060006101000a81548173ffffffffffffffffffffffffffffffffffffffff021916908373ffffffffffffffffffffffffffffffffffffffff160217905550808273ffffffffffffffffffffffffffffffffffffffff16600073ffffffffffffffffffffffffffffffffffffffff167fddf252ad1be2c89b69c2b068fc378daa952ba7f163c4a11628f55a4df523b3ef60405160405180910390a4611f3060008383611b63565b5050565b6000808273ffffffffffffffffffffffffffffffffffffffff163b119050919050565b828054611f6390612cf2565b90600052602060002090601f016020900481019282611f855760008555611fcc565b82601f10611f9e57805160ff1916838001178555611fcc565b82800160010185558215611fcc579182015b82811115611fcb578251825591602001919060010190611fb0565b5b509050611fd99190611fdd565b5090565b5b80821115611ff6576000816000905550600101611fde565b5090565b600061200d61200884612aca565b612aa5565b90508281526020810184848401111561202557600080fd5b612030848285612cb0565b509392505050565b600061204b61204684612afb565b612aa5565b90508281526020810184848401111561206357600080fd5b61206e848285612cb0565b509392505050565b6000813590506120858161336c565b92915050565b60008135905061209a81613383565b92915050565b6000813590506120af8161339a565b92915050565b6000813590506120c4816133b1565b92915050565b6000815190506120d9816133b1565b92915050565b600082601f8301126120f057600080fd5b8135612100848260208601611ffa565b91505092915050565b600082601f83011261211a57600080fd5b813561212a848260208601612038565b91505092915050565b600081359050612142816133c8565b92915050565b600081519050612157816133c8565b92915050565b60006020828403121561216f57600080fd5b600061217d84828501612076565b91505092915050565b60006020828403121561219857600080fd5b60006121a68482850161208b565b91505092915050565b600080604083850312156121c257600080fd5b60006121d085828601612076565b92505060206121e185828601612076565b9150509250929050565b60008060006060848603121561220057600080fd5b600061220e86828701612076565b935050602061221f86828701612076565b925050604061223086828701612133565b9150509250925092565b6000806000806080858703121561225057600080fd5b600061225e87828801612076565b945050602061226f87828801612076565b935050604061228087828801612133565b925050606085013567ffffffffffffffff81111561229d57600080fd5b6122a9878288016120df565b91505092959194509250565b600080604083850312156122c857600080fd5b60006122d685828601612076565b92505060206122e7858286016120a0565b9150509250929050565b6000806040838503121561230457600080fd5b600061231285828601612076565b925050602061232385828601612133565b9150509250929050565b60006020828403121561233f57600080fd5b600061234d848285016120b5565b91505092915050565b60006020828403121561236857600080fd5b6000612376848285016120ca565b91505092915050565b60006020828403121561239157600080fd5b600082013567ffffffffffffffff8111156123ab57600080fd5b6123b784828501612109565b91505092915050565b6000602082840312156123d257600080fd5b60006123e084828501612133565b91505092915050565b6000602082840312156123fb57600080fd5b600061240984828501612148565b91505092915050565b61241b81612c3c565b82525050565b61242a81612c2a565b82525050565b61243981612c4e565b82525050565b600061244a82612b2c565b6124548185612b42565b9350612464818560208601612cbf565b61246d81612e8b565b840191505092915050565b600061248382612b37565b61248d8185612b53565b935061249d818560208601612cbf565b6124a681612e8b565b840191505092915050565b60006124bc82612b37565b6124c68185612b64565b93506124d6818560208601612cbf565b80840191505092915050565b60006124ef601783612b53565b91506124fa82612e9c565b602082019050919050565b6000612512603283612b53565b915061251d82612ec5565b604082019050919050565b6000612535602683612b53565b915061254082612f14565b604082019050919050565b6000612558602583612b53565b915061256382612f63565b604082019050919050565b600061257b601c83612b53565b915061258682612fb2565b602082019050919050565b600061259e602483612b53565b91506125a982612fdb565b604082019050919050565b60006125c1601983612b53565b91506125cc8261302a565b602082019050919050565b60006125e4602c83612b53565b91506125ef82613053565b604082019050919050565b6000612607603883612b53565b9150612612826130a2565b604082019050919050565b600061262a602a83612b53565b9150612635826130f1565b604082019050919050565b600061264d602983612b53565b915061265882613140565b604082019050919050565b6000612670602f83612b53565b915061267b8261318f565b604082019050919050565b6000612693602083612b53565b915061269e826131de565b602082019050919050565b60006126b6602c83612b53565b91506126c182613207565b604082019050919050565b60006126d9602083612b53565b91506126e482613256565b602082019050919050565b60006126fc602f83612b53565b91506127078261327f565b604082019050919050565b600061271f602183612b53565b915061272a826132ce565b604082019050919050565b6000612742603183612b53565b915061274d8261331d565b604082019050919050565b61276181612ca6565b82525050565b600061277382856124b1565b915061277f82846124b1565b91508190509392505050565b60006020820190506127a06000830184612421565b92915050565b60006020820190506127bb6000830184612412565b92915050565b60006080820190506127d66000830187612421565b6127e36020830186612421565b6127f06040830185612758565b8181036060830152612802818461243f565b905095945050505050565b60006020820190506128226000830184612430565b92915050565b600060208201905081810360008301526128428184612478565b905092915050565b60006020820190508181036000830152612863816124e2565b9050919050565b6000602082019050818103600083015261288381612505565b9050919050565b600060208201905081810360008301526128a381612528565b9050919050565b600060208201905081810360008301526128c38161254b565b9050919050565b600060208201905081810360008301526128e38161256e565b9050919050565b6000602082019050818103600083015261290381612591565b9050919050565b60006020820190508181036000830152612923816125b4565b9050919050565b60006020820190508181036000830152612943816125d7565b9050919050565b60006020820190508181036000830152612963816125fa565b9050919050565b600060208201905081810360008301526129838161261d565b9050919050565b600060208201905081810360008301526129a381612640565b9050919050565b600060208201905081810360008301526129c381612663565b9050919050565b600060208201905081810360008301526129e381612686565b9050919050565b60006020820190508181036000830152612a03816126a9565b9050919050565b60006020820190508181036000830152612a23816126cc565b9050919050565b60006020820190508181036000830152612a43816126ef565b9050919050565b60006020820190508181036000830152612a6381612712565b9050919050565b60006020820190508181036000830152612a8381612735565b9050919050565b6000602082019050612a9f6000830184612758565b92915050565b6000612aaf612ac0565b9050612abb8282612d24565b919050565b6000604051905090565b600067ffffffffffffffff821115612ae557612ae4612e5c565b5b612aee82612e8b565b9050602081019050919050565b600067ffffffffffffffff821115612b1657612b15612e5c565b5b612b1f82612e8b565b9050602081019050919050565b600081519050919050565b600081519050919050565b600082825260208201905092915050565b600082825260208201905092915050565b600081905092915050565b6000612b7a82612ca6565b9150612b8583612ca6565b9250827fffffffffffffffffffffffffffffffffffffffffffffffffffffffffffffffff03821115612bba57612bb9612dcf565b5b828201905092915050565b6000612bd082612ca6565b9150612bdb83612ca6565b925082612beb57612bea612dfe565b5b828204905092915050565b6000612c0182612ca6565b9150612c0c83612ca6565b925082821015612c1f57612c1e612dcf565b5b828203905092915050565b6000612c3582612c86565b9050919050565b6000612c4782612c86565b9050919050565b60008115159050919050565b60007fffffffff0000000000000000000000000000000000000000000000000000000082169050919050565b600073ffffffffffffffffffffffffffffffffffffffff82169050919050565b6000819050919050565b82818337600083830152505050565b60005b83811015612cdd578082015181840152602081019050612cc2565b83811115612cec576000848401525b50505050565b60006002820490506001821680612d0a57607f821691505b60208210811415612d1e57612d1d612e2d565b5b50919050565b612d2d82612e8b565b810181811067ffffffffffffffff82111715612d4c57612d4b612e5c565b5b80604052505050565b6000612d6082612ca6565b91507fffffffffffffffffffffffffffffffffffffffffffffffffffffffffffffffff821415612d9357612d92612dcf565b5b600182019050919050565b6000612da982612ca6565b9150612db483612ca6565b925082612dc457612dc3612dfe565b5b828206905092915050565b7f4e487b7100000000000000000000000000000000000000000000000000000000600052601160045260246000fd5b7f4e487b7100000000000000000000000000000000000000000000000000000000600052601260045260246000fd5b7f4e487b7100000000000000000000000000000000000000000000000000000000600052602260045260246000fd5b7f4e487b7100000000000000000000000000000000000000000000000000000000600052604160045260246000fd5b6000601f19601f8301169050919050565b7f4d6178696d756d20737570706c79207265616368656421000000000000000000600082015250565b7f4552433732313a207472616e7366657220746f206e6f6e20455243373231526560008201527f63656976657220696d706c656d656e7465720000000000000000000000000000602082015250565b7f4f776e61626c653a206e6577206f776e657220697320746865207a65726f206160008201527f6464726573730000000000000000000000000000000000000000000000000000602082015250565b7f4552433732313a207472616e736665722066726f6d20696e636f72726563742060008201527f6f776e6572000000000000000000000000000000000000000000000000000000602082015250565b7f4552433732313a20746f6b656e20616c7265616479206d696e74656400000000600082015250565b7f4552433732313a207472616e7366657220746f20746865207a65726f2061646460008201527f7265737300000000000000000000000000000000000000000000000000000000602082015250565b7f4552433732313a20617070726f766520746f2063616c6c657200000000000000600082015250565b7f4552433732313a206f70657261746f7220717565727920666f72206e6f6e657860008201527f697374656e7420746f6b656e0000000000000000000000000000000000000000602082015250565b7f4552433732313a20617070726f76652063616c6c6572206973206e6f74206f7760008201527f6e6572206e6f7220617070726f76656420666f7220616c6c0000000000000000602082015250565b7f4552433732313a2062616c616e636520717565727920666f7220746865207a6560008201527f726f206164647265737300000000000000000000000000000000000000000000602082015250565b7f4552433732313a206f776e657220717565727920666f72206e6f6e657869737460008201527f656e7420746f6b656e0000000000000000000000000000000000000000000000602082015250565b7f56616c75652073656e74206e6f7420636f72726563742c206d696e742066656560008201527f20697320302e30312065746865722e0000000000000000000000000000000000602082015250565b7f4552433732313a206d696e7420746f20746865207a65726f2061646472657373600082015250565b7f4552433732313a20617070726f76656420717565727920666f72206e6f6e657860008201527f697374656e7420746f6b656e0000000000000000000000000000000000000000602082015250565b7f4f776e61626c653a2063616c6c6572206973206e6f7420746865206f776e6572600082015250565b7f4552433732314d657461646174613a2055524920717565727920666f72206e6f60008201527f6e6578697374656e7420746f6b656e0000000000000000000000000000000000602082015250565b7f4552433732313a20617070726f76616c20746f2063757272656e74206f776e6560008201527f7200000000000000000000000000000000000000000000000000000000000000602082015250565b7f4552433732313a207472616e736665722063616c6c6572206973206e6f74206f60008201527f776e6572206e6f7220617070726f766564000000000000000000000000000000602082015250565b61337581612c2a565b811461338057600080fd5b50565b61338c81612c3c565b811461339757600080fd5b50565b6133a381612c4e565b81146133ae57600080fd5b50565b6133ba81612c5a565b81146133c557600080fd5b50565b6133d181612ca6565b81146133dc57600080fd5b5056fea264697066735822122035f073171104effe8d4cb585455e81e2871651b48cb237fdc4d80ffccfee964564736f6c63430008010033608060405234801561001057600080fd5b5061002d61002261003260201b60201c565b61003a60201b60201c565b6100fe565b600033905090565b60008060009054906101000a900473ffffffffffffffffffffffffffffffffffffffff169050816000806101000a81548173ffffffffffffffffffffffffffffffffffffffff021916908373ffffffffffffffffffffffffffffffffffffffff1602179055508173ffffffffffffffffffffffffffffffffffffffff168173ffffffffffffffffffffffffffffffffffffffff167f8be0079c531659141344cd1fd0a4f28419497f9722a3daafe3b4186f6b6457e060405160405180910390a35050565b610bfc8061010d6000396000f3fe6080604052600436106100555760003560e01c806351cff8d91461005a578063715018a6146100835780638da5cb5b1461009a578063e3a9db1a146100c5578063f2fde38b14610102578063f340fa011461012b575b600080fd5b34801561006657600080fd5b50610081600480360381019061007c91906107f5565b610147565b005b34801561008f57600080fd5b506100986102c7565b005b3480156100a657600080fd5b506100af61034f565b6040516100bc9190610900565b60405180910390f35b3480156100d157600080fd5b506100ec60048036038101906100e791906107cc565b610378565b6040516100f9919061099b565b60405180910390f35b34801561010e57600080fd5b50610129600480360381019061012491906107cc565b6103c1565b005b610145600480360381019061014091906107cc565b6104b9565b005b61014f6105e2565b73ffffffffffffffffffffffffffffffffffffffff1661016d61034f565b73ffffffffffffffffffffffffffffffffffffffff16146101c3576040517f08c379a00000000000000000000000000000000000000000000000000000000081526004016101ba9061097b565b60405180910390fd5b6000600160008373ffffffffffffffffffffffffffffffffffffffff1673ffffffffffffffffffffffffffffffffffffffff1681526020019081526020016000205490506000600160008473ffffffffffffffffffffffffffffffffffffffff1673ffffffffffffffffffffffffffffffffffffffff16815260200190815260200160002081905550610275818373ffffffffffffffffffffffffffffffffffffffff166105ea90919063ffffffff16565b8173ffffffffffffffffffffffffffffffffffffffff167f7084f5476618d8e60b11ef0d7d3f06914655adb8793e28ff7f018d4c76d505d5826040516102bb919061099b565b60405180910390a25050565b6102cf6105e2565b73ffffffffffffffffffffffffffffffffffffffff166102ed61034f565b73ffffffffffffffffffffffffffffffffffffffff1614610343576040517f08c379a000000000000000000000000000000000000000000000000000000000815260040161033a9061097b565b60405180910390fd5b61034d60006106de565b565b60008060009054906101000a900473ffffffffffffffffffffffffffffffffffffffff16905090565b6000600160008373ffffffffffffffffffffffffffffffffffffffff1673ffffffffffffffffffffffffffffffffffffffff168152602001908152602001600020549050919050565b6103c96105e2565b73ffffffffffffffffffffffffffffffffffffffff166103e761034f565b73ffffffffffffffffffffffffffffffffffffffff161461043d576040517f08c379a00000000000000000000000000000000000000000000000000000000081526004016104349061097b565b60405180910390fd5b600073ffffffffffffffffffffffffffffffffffffffff168173ffffffffffffffffffffffffffffffffffffffff1614156104ad576040517f08c379a00000000000000000000000000000000000000000000000000000000081526004016104a49061091b565b60405180910390fd5b6104b6816106de565b50565b6104c16105e2565b73ffffffffffffffffffffffffffffffffffffffff166104df61034f565b73ffffffffffffffffffffffffffffffffffffffff1614610535576040517f08c379a000000000000000000000000000000000000000000000000000000000815260040161052c9061097b565b60405180910390fd5b600034905080600160008473ffffffffffffffffffffffffffffffffffffffff1673ffffffffffffffffffffffffffffffffffffffff168152602001908152602001600020600082825461058991906109d2565b925050819055508173ffffffffffffffffffffffffffffffffffffffff167f2da466a7b24304f47e87fa2e1e5a81b9831ce54fec19055ce277ca2f39ba42c4826040516105d6919061099b565b60405180910390a25050565b600033905090565b8047101561062d576040517f08c379a00000000000000000000000000000000000000000000000000000000081526004016106249061095b565b60405180910390fd5b60008273ffffffffffffffffffffffffffffffffffffffff1682604051610653906108eb565b60006040518083038185875af1925050503d8060008114610690576040519150601f19603f3d011682016040523d82523d6000602084013e610695565b606091505b50509050806106d9576040517f08c379a00000000000000000000000000000000000000000000000000000000081526004016106d09061093b565b60405180910390fd5b505050565b60008060009054906101000a900473ffffffffffffffffffffffffffffffffffffffff169050816000806101000a81548173ffffffffffffffffffffffffffffffffffffffff021916908373ffffffffffffffffffffffffffffffffffffffff1602179055508173ffffffffffffffffffffffffffffffffffffffff168173ffffffffffffffffffffffffffffffffffffffff167f8be0079c531659141344cd1fd0a4f28419497f9722a3daafe3b4186f6b6457e060405160405180910390a35050565b6000813590506107b181610b98565b92915050565b6000813590506107c681610baf565b92915050565b6000602082840312156107de57600080fd5b60006107ec848285016107a2565b91505092915050565b60006020828403121561080757600080fd5b6000610815848285016107b7565b91505092915050565b61082781610a28565b82525050565b600061083a6026836109c1565b915061084582610aa5565b604082019050919050565b600061085d603a836109c1565b915061086882610af4565b604082019050919050565b6000610880601d836109c1565b915061088b82610b43565b602082019050919050565b60006108a36020836109c1565b91506108ae82610b6c565b602082019050919050565b60006108c66000836109b6565b91506108d182610b95565b600082019050919050565b6108e581610a6c565b82525050565b60006108f6826108b9565b9150819050919050565b6000602082019050610915600083018461081e565b92915050565b600060208201905081810360008301526109348161082d565b9050919050565b6000602082019050818103600083015261095481610850565b9050919050565b6000602082019050818103600083015261097481610873565b9050919050565b6000602082019050818103600083015261099481610896565b9050919050565b60006020820190506109b060008301846108dc565b92915050565b600081905092915050565b600082825260208201905092915050565b60006109dd82610a6c565b91506109e883610a6c565b9250827fffffffffffffffffffffffffffffffffffffffffffffffffffffffffffffffff03821115610a1d57610a1c610a76565b5b828201905092915050565b6000610a3382610a4c565b9050919050565b6000610a4582610a4c565b9050919050565b600073ffffffffffffffffffffffffffffffffffffffff82169050919050565b6000819050919050565b7f4e487b7100000000000000000000000000000000000000000000000000000000600052601160045260246000fd5b7f4f776e61626c653a206e6577206f776e657220697320746865207a65726f206160008201527f6464726573730000000000000000000000000000000000000000000000000000602082015250565b7f416464726573733a20756e61626c6520746f2073656e642076616c75652c207260008201527f6563697069656e74206d61792068617665207265766572746564000000000000602082015250565b7f416464726573733a20696e73756666696369656e742062616c616e6365000000600082015250565b7f4f776e61626c653a2063616c6c6572206973206e6f7420746865206f776e6572600082015250565b50565b610ba181610a28565b8114610bac57600080fd5b50565b610bb881610a3a565b8114610bc357600080fd5b5056fea264697066735822122073b307195fd92b28f2600edbbb914776573abe0392628b3f8a5ee2d6ab956cfa64736f6c63430008010033",
  "linkReferences": {},
  "deployedLinkReferences": {}
}